:020000040800F2
:100000003004002045010008AD0300080903000882
:10001000A9030008E5010008930A00080000000099
:100020000000000000000000000000009105000832
:10003000E901000800000000790400087D060008BE
:100040005F0100085F0100085F0100085F01000810
:100050005F0100085F0100085F0100085F01000800
:100060005F0100085F0100085F0100085F010008F0
:100070005F0100085F0100085F0100085F010008E0
:100080005F0100085F0100085F0100085F010008D0
:100090005F0100085F0100085F0100085F010008C0
:1000A0005F0100085F0100085F0100085F010008B0
:1000B0005F0100085F0100085F0100085F010008A0
:1000C0005F0100085F0100085F0100085F01000890
:1000D0005F01000895070008790800085F01000823
:1000E0005F0100085F0100085F0100085F01000870
:1000F0005F0100085F0100085F0100085F01000860
:100100005F0100085F0100085F0100085F0100084F
:100110005F0100085F0100085F0100085F0100083F
:100120005F0100085F0100085F0100085F0100082F
:10013000DFF80CD000F018F800480047290B000841
:10014000300400200648804706480047FEE7FEE7E7
:10015000FEE7FEE7FEE7FEE7FEE7FEE7FEE7FEE777
:10016000A106000831010008064C074D06E0E068D2
:1001700040F0010394E8070098471034AC42F6D3EE
:10018000FFF7DAFFBC0B0008DC0B000808B5012103
:10019000042000F083F90120ADF8000010208DF854
:1001A000030003208DF802006946044800F01DF8A2
:1001B0000121024800F0A6F808BD00000008014037
:1001C00010B50446012C04D10121054800F09AF82D
:1001D00005E0601C18B90121014800F091F810BD3C
:1001E0000008014000BFFEE770472DE9F0410246DC
:1001F00000250026002000230024002791F803C0DA
:100200000CF00F0591F803C00CF0100CBCF1000FBE
:1002100003D091F802C04CEA050591F800C0BCF18A
:10022000000F31D0146800202BE04FF0010C0CFAC5
:1002300000F3B1F800C00CEA03069E4220D183000F
:100240004FF00F0C0CFA03F7BC4305FA03FC4CEA21
:10025000040491F803C0BCF1280F06D14FF0010C43
:100260000CFA00FCC2F814C00AE091F803C0BCF11B
:10027000480F05D14FF0010C0CFA00FCC2F810C079
:10028000401C0828D1D31460B1F800C0BCF1FF0FA6
:1002900034DD546800202EE000F1080C4FF0010816
:1002A00008FA0CF3B1F800C00CEA03069E4221D113
:1002B00083004FF00F0C0CFA03F7BC4305FA03FC64
:1002C0004CEA040491F803C0BCF1280F05D100F1F9
:1002D000080C08FA0CF8C2F8148091F803C0BCF1BD
:1002E000480F07D100F1080C4FF0010808FA0CF88C
:1002F000C2F81080401C0828CED35460BDE8F081BD
:10030000416170470161704700BFFEE730B5164894
:1003100000684FF47A72B0FBF2F1B1F1807F01D343
:1003200001201DE021F07F40401E4FF0E02250618F
:1003300050170F22002807DA13071D0E0B4B00F091
:100340000F04241F1D5503E013071C0E084B1C54FB
:1003500000BF00204FF0E0229061072010610020D4
:1003600008B100BFFEE730BD0000002018ED00E03E
:1003700000E400E008B50121102000F08FF80F2004
:10038000ADF8000010208DF8030003208DF8020066
:1003900069460448FFF729FF0F210248FFF7B2FF23
:1003A00008BD00000010014000BFFEE7704708B51F
:1003B0004FF4A06000F056F825208DF800000020D2
:1003C0008DF801008DF8020001208DF803006846C9
:1003D00000F010F826208DF8000001208DF80100B3
:1003E00000208DF8020001208DF80300684600F01F
:1003F00001F808BD70B5002100230F22C47804B3B2
:10040000154C246804F4E064C4F5E064210AC1F1E9
:100410000403CA40447804FA03F184781440214369
:1004200009010E4C0678A155047804F01F0501243B
:10043000AC4005786D11AD0005F1E025C5F800412F
:1004400009E0047804F01F050124AC40044D06784F
:10045000761145F8264070BD0CED00E000E400E0A8
:1004600080E100E002490143024A11607047000048
:100470000000FA050CED00E07047000029B1064AC3
:10048000D2690243044BDA6104E0034AD269824331
:10049000014BDA61704700000010024029B1064AA2
:1004A00092690243044B9A6104E0034A92698243D1
:1004B000014B9A61704700000010024030B50021E6
:1004C0000022002400232D4D6D6805F00C0121B1A0
:1004D000042905D0082923D105E0294D056022E033
:1004E000274D05601FE0254D6D6805F47012234D02
:1004F0006D6805F48034022505EB92421CB9214D4C
:10050000554305600BE01D4D6D6805F400351DB1C8
:100510001C4D5543056002E0194D5543056002E04E
:10052000174D056000BF00BF144D6D6805F0F00168
:100530000909154D6B5C0568DD4045600F4D6D6820
:1005400005F4E061090A104D6B5C4568DD4085608B
:100550000A4D6D6805F46051C90A0B4D6B5C456826
:10056000DD40C560054D6D6805F44041890B074DC0
:100570006B5CC568B5FBF3F5056130BD001002404A
:1005800000127A0000093D00140000202400002021
:10059000704710B500F002F810BD00000CB5002047
:1005A000019000903348006840F480303149086081
:1005B00000BF3048006800F4003000900198401CF3
:1005C0000190009818B90198B0F5A06FF1D12948B1
:1005D000006800F4003010B10120009001E000201C
:1005E00000900098012843D12348006840F0100093
:1005F000214908600846006820F0030008600846AA
:10060000006840F0020008601A48406819494860D4
:100610000846406848600846406840F4806048608A
:100620000846406820F47C1048600846406840F462
:10063000E81048600846006840F08070086000BF1D
:100640000C48006800F000700028F9D009484068A4
:1006500020F00300074948600846406840F0020067
:10066000486000BF0348406800F00C000828F9D13A
:100670000CBD000000100240002002400748006846
:1006800010F5803F05D805480068401C0349086004
:1006900002E00020014908607047000028000020A7
:1006A00010B51348006840F0010011490860084681
:1006B0004068104908400E494860084600680E49E5
:1006C00008400B4908600846006820F48020086054
:1006D0000846406820F4FE0048604FF41F00886020
:1006E000FFF757FF4FF000600449086010BD00009D
:1006F000001002400000FFF8FFFFF6FE08ED00E0EA
:1007000010B586B0044614B9002006B010BD012112
:1007100044F20400FFF7C2FE4FF40070ADF814007D
:1007200018208DF8170003208DF8160005A917482A
:10073000FFF75BFD4FF48060ADF8140004208DF8E6
:10074000170005A91148FFF750FD01940020ADF8EE
:100750000800ADF80A00ADF80C00ADF810000C2050
:10076000ADF80E0001A90A4800F01EF9012240F27E
:100770002551074800F0F2F80121054800F0B8F8CB
:100780004021034800F09CF80120BEE7000801402A
:100790000038014010B504210F48FFF7B1FD40F2C9
:1007A00025510E4800F0B0F880B10C4800F068F90F
:1007B000C4B221460A4800F068F92146074800F013
:1007C00064F940F22551054800F083F840210348C0
:1007D00000F076F810BD0000001001400038014024
:1007E0000044004000B585B0012144F20400FFF749
:1007F00055FE01214804FFF741FE0420ADF810002A
:1008000018208DF8130003208DF8120004A9184851
:10081000FFF7EBFC0820ADF8100004208DF8130062
:1008200004A91348FFF7E1FC4FF416500090002094
:10083000ADF80400ADF80600ADF80800ADF80C0006
:100840000C20ADF80A0069460A4800F0ADF8012214
:1008500040F22551074800F081F80121054800F0D9
:1008600047F84021034800F02BF805B000BD000018
:10087000000801400044004010B502210D48FFF778
:100880003FFD40F225510C4800F03EF860B10A48A7
:1008900000F0F6F8C4B22146084800F0F6F840F23D
:1008A0002551054800F015F84021034800F008F8EC
:1008B00010BD00000010014000440040003801401D
:1008C00001F40072B2F5007F00D100BFCA4302807C
:1008D000704710B50022002340F66A14A14200D1EF
:1008E00000BF0A1201249440A3B2DC43048010BD6F
:1008F00021B1828942F40052828104E082894DF65E
:10090000FF731A408281704770B5024600240023AD
:100910000025002040F66A16B14200D100BFC1F3A5
:10092000421501F01F03012606FA03F3012D02D13F
:100930009689334006E0022D02D1168A334001E049
:10094000968A33400C12012606FA04F416883440C5
:1009500013B10CB1012000E0002070BDF0B50346DA
:10096000002400260025002040F66A17B94200D175
:1009700000BF1846C1F3421401F01F06012707FA11
:1009800006F5012C01D10C3004E0022C01D110300D
:1009900000E014301AB107682F43076002E00768CF
:1009A000AF430760F0BD00002DE9F04786B0054673
:1009B0000E460024A24600BFA1460027B08900B120
:1009C00000BF2F462C8A4CF6FF700440F088044389
:1009D0002C82AC894EF6F3100440B088318908436C
:1009E000718908430443AC81AC8A4FF6FF40044050
:1009F000B0890443AC8201A8FFF760FD1F4887421D
:100A000002D1DDF810A001E0DDF80CA0A88900F407
:100A1000004040B10AEBCA0000EB0A1031684900FF
:100A2000B0FBF1F807E00AEBCA0000EB0A103168EE
:100A30008900B0FBF1F86420B8FBF0F00401200954
:100A4000642101FB1089A88900F4004040B13220E4
:100A500000EBC900B0FBF1F000F00700044308E030
:100A6000322000EB09106421B0FBF1F000F00F0020
:100A700004432C8106B0BDE8F08700000038014037
:100A800001468888C0F308007047C1F308028280DD
:100A9000704700BFFEE70000014A024900F013B8AA
:100AA000050B00082C00002002E008C8121F08C136
:100AB000002AFAD170477047002001E001C1121FDF
:100AC000002AFBD170472DE9F04116460F46044637
:100AD000002503E03946B047641C6D1C20780028CF
:100AE000F8D12846BDE8F08101B50549086800BF86
:100AF00003490968091A009A9142F9D308BD000018
:100B00002800002070B504460D46E1B20548FFF705
:100B1000BCFF00BF0348008800F080000028F9D027
:100B2000204670BD00380140FFF7F0FBFFF722FCC4
:100B3000FFF72CFB4FF41650FFF7E2FD402115485C
:100B4000FFF7BEFEFFF74EFE40211348FFF7B8FE49
:100B5000FFF72DFC11A0FFF79FFF0120FFF730FBEF
:100B60004FF4FA60FFF7C0FF4FF0FF30FFF728FBAC
:100B70000EE002210F48FFF7C5FB04210D48FFF7E7
:100B8000C1FB0DA0FFF788FF4FF4FA70FFF7ACFF31
:100B9000EFE7000000380140004400406F70656ED0
:100BA000206263393520706F776572202E2E2E0DEE
:100BB0000A000000001001404F4B0000DC0B000851
:100BC0000000002030000000A80A00080C0C0008FB
:100BD0003000002000040000B80A000800A24A0407
:100BE00000000000000000000102030406070809DD
:100BF00000000000010203040102030406070809C3
:0C0C0000020406080000000000000000D4
:0400000508000131BD
:00000001FF
